:100000000C9434000C9449000C9449000C94490061
:100010000C9449000C9449000C9449000C9449003C
:100020000C9449000C9449000C9449000C9449002C
:100030000C9449000C9449000C9449000C9449001C
:100040000C9449000C9449000C9489010C944900CB
:100050000C948A010C9449000C9449000C944900BA
:100060000C9449000C94490011241FBECFEFD8E036
:10007000DEBFCDBF11E0A0E0B1E0EEE8F9E002C0E4
:1000800005900D92AC30B107D9F70E94C7010C94CE
:10009000C5040C94000086B181700895409A389A86
:1000A0000895CF93DF93C82FDFB7F894389A8AE08A
:1000B0008A95F1F7C111389885E48A95F1F7309B5C
:1000C000C0E085EE8A95F1F7389861110E944E00E4
:1000D000DFBF85E38A95F1F78C2FDF91CF910895EB
:1000E0003898409808954098389A80E897E00197AA
:1000F000F1F72FB7F894389880E091E00197F1F785
:1001000086B12FBFE0E8F6E03197F1F7309B02C0EF
:100110008170089581E0089560E081700C94510031
:10012000CF93DF93C82FD8E08C2F81700E948C0072
:10013000C6958111C068D150B9F78C2FDF91CF914E
:100140000895CF93DF93C82FD8E08C2F817060E0A3
:10015000D13009F461E00E945100C6958111C06858
:10016000D15099F78C2FDF91CF910895EF92FF92A4
:100170000F931F93CF93DF93182FEB01042F0E944F
:1001800073002097C1F085E50E9490007E0188E011
:10019000E80EF11C89910E949000CE15DF05D1F781
:1001A000812F002361F0DF91CF911F910F91FF907C
:1001B000EF900C94A1008CEC0E949000F1CFDF91A5
:1001C000CF911F910F91FF90EF900C9490008FEFC3
:1001D0000C949000DF92EF92FF920F931F93CF93B6
:1001E000DF93E82E8B010E947300D82F811141C04C
:1001F00080EF0E949000C0E488EFD82EDC0E81E0F2
:100200000E948C00F82E81E00E948C00882321F04F
:10021000FF2081F0DEEF1EC0F1100CC0CE1518F1EA
:10022000F8018081982F917080FF04C0CE1511F0E5
:10023000F92EDC2F8F2D0E948C00F801908196956D
:10024000F11015C09083C150CD11D9CF0F5F1F4F52
:10025000C111D2CF8D2FDF91CF911F910F91FF90C0
:10026000EF90DF900895DC2FFF24F394E3CF9068A4
:10027000E9CFDFEFEFCF40E00C94B60041E00C9403
:10028000B6000F931F93CF93DF93182F092F0E946F
:1002900073008CEC0E94900084E40E9490000E9405
:1002A00073008CEC0E9490008EEB0E9490000E94E4
:1002B000E700D82F0E94E700C82F0E9473004D2F3F
:1002C00042954F70DF7021E732E0D29FC001D39F8B
:1002D000900D11249F938F9380E1C89F900111246A
:1002E0002077242B1F922F9381E091E09F938F938F
:1002F0000F931F930E94F4018DB79EB708960FB617
:10030000F8949EBF0FBE8DBFDF91CF911F910F91CB
:10031000089518958F9381E0809300018F9118952F
:10032000E0ECF0E080818D7F80831092C50082E256
:100330008093C40088ED8093C100089590910001DE
:100340009923E1F3109200018093C60008950F9362
:100350001F93CF93DF93EC018C01060F171FC0177B
:10036000D10729F4DF91CF911F910F9108958991C1
:100370000E949E01F4CFCF93DF93EC0189910E94FC
:100380009E0188818111FACFDF91CF910895CF939B
:10039000DF93CDB7DEB72B970FB6F894DEBF0FBE55
:1003A000CDBF78940E9490010E9473008E010F5F70
:1003B0001F4F80E9E82EFF24F394C8010E944101F9
:1003C00028E833E1C801F7013197F1F721503109ED
:1003D000D1F76BE070E00E94A7018DE00E949E01C2
:1003E0008AE00E949E01E9CFAEE0B0E0EAEFF1E0E2
:1003F0000C949C040D891E8986E08C831A830983E2
:100400008FEF9FE79E838D83AE01475E5F4F6F89BD
:10041000788DCE0101960E9417022F813885020F38
:10042000131FF80110822E96E4E00C94B804AFE09C
:10043000B0E0EDE1F2E00C948E047C013B018A0116
:10044000DC0117961C921E92169713968C9181FFD1
:10045000BEC19AE0292EFE0131964F01D7011396B5
:100460009C91F30193FD859193FF81913F01882336
:1004700009F444C1853239F493FD859193FF81914C
:100480003F01853229F4B70190E00E940004E6CFD5
:10049000B12C412C512CBFE1B51538F08B3209F14C
:1004A00088F4803201F1833221F157FC3AC020ED0B
:1004B000280F2A3040F556FE1FC0B29C200D112493
:1004C000B22E06C08D3291F0803379F7689450F8DF
:1004D000F30193FD859193FF81913F018111DBCF62
:1004E00020C0689451F8689452F8F2CF689453F899
:1004F000EFCF689454F8ECCF429C200D1124422E8B
:10050000689455F8E5CF8E3229F456FCF7C068940C
:1005100056F8DECF8C3619F4689457F8D9CF883660
:10052000B9F2982F9F7D95549330C0F0833681F1B6
:100530008337A1F1833509F05BC0D801CD90DD9000
:100540008D016B2D70E056FC02C06FEF7FEFC6018E
:100550000E94EA035C01689457F80AC00C5F1F4FC1
:10056000EFE3E983AA24A394B12C6401E89457F83B
:1005700053FE29C0342CA114B10451F5332009F4E1
:100580006DCFB70180E290E00E9400043A94F6CF6C
:10059000D8018C9189830E5F1F4FE4CFF801C19081
:1005A000D1908F016B2D70E056FC02C06FEF7FEF92
:1005B000C6010E94F5035C01D9CFB70180E290E04B
:1005C0000E9400044A944A141B0409F0B0F7D2CFE9
:1005D000F60157FC859157FE81916F01B70190E0BC
:1005E0000E94000431103A94B1E0AB1AB108C3CFB5
:1005F000843619F0893609F071C0F80157FE67C0DA
:1006000061917191819191918F01E52DEF76DE2EAF
:1006100097FF09C090958095709561957F4F8F4F9A
:100620009F4F6894D7F82AE030E0A4010E9430047C
:10063000C82EC818AC2C5D2CD6FE0CC0E89450F81F
:10064000CB1440F4D4FE05C0D2FC03C05D2D5E7E09
:10065000552EAB2C54FE93C0FE01EC0DF11D808194
:10066000803309F085C0652D697E562E752D787012
:10067000372E53FC93C050FE8DC0BC2CA41410F434
:10068000B40CBA1854FE90C0B70180E390E00E9409
:10069000000452FE07C088E751FC88E590E0B701EE
:1006A0000E940004CB1408F48BC0CA94D12C8FEFA5
:1006B000C81AD80AC80CD91CD6018E916D01B70191
:1006C00090E00E9400048C149D04B1F757CF619113
:1006D0007191072E000C880B990B96CFD52CE894BE
:1006E000D4F82AE0853729F1F52DF97FDF2E803700
:1006F000A1F058F48835A1F08F36D1F0F70186814A
:1007000097812F96E2E10C94AA048837B9F7D4FEBA
:1007100002C06894D2F820E10CC06894D4F8F7CFF6
:1007200054FE03C02F2F2660D22E20E132E002C0FB
:1007300028E030E0F801D7FE15C041915191619158
:1007400071914C875D876E877F878F01A4016C85CF
:100750007D858E859F850E943004C82EC818E89438
:10076000D7F868CF81919191AC0170E060E0E9CF5A
:1007700052FC02C0A3947ACFA394A39477CF852D83
:10078000867809F473CFF6CFB70180E290E00E943B
:100790000004A394A414C0F3312C74CF342C3A1861
:1007A000A41408F46FCFF8CF852D867809F47ACF9A
:1007B0008BE251FE80E257FC8DE2B70190E070CFF2
:1007C000B70180E390E00E940004BA946BCF8FEFF2
:1007D0009FEF97CFFC010590615070400110D8F752
:1007E000809590958E0F9F1F0895FC016150704079
:1007F00001900110D8F7809590958E0F9F1F089556
:100800000F931F93CF93DF93182F092FEB018B8149
:1008100081FD09C01FEF0FEF812F902FDF91CF9146
:100820001F910F91089582FF14C02E813F818C810A
:100830009D81281739073CF4E881F981CF010196A1
:100840009983888310838E819F8101969F838E83F5
:10085000E3CFE885F985812F0995892BA1F3DACFBC
:10086000FA01AA27283051F1203181F1E8946F93E1
:100870006E7F6E5F7F4F8F4F9F4FAF4FB1E03ED087
:10088000B4E03CD0670F781F891F9A1FA11D680F25
:10089000791F8A1F911DA11D6A0F711D811D911D58
:1008A000A11D20D009F468943F912AE0269F1124CD
:1008B0003019305D3193DEF6CF010895462F477031
:1008C000405D4193B3E00FD0C9F7F6CF462F4F708C
:1008D000405D4A3318F0495D31FD4052419302D0EA
:1008E000A9F7EACFB4E0A695979587957795679590
:1008F000BA95C9F700976105710508959B01AC0190
:100900000A2E06945795479537952795BA95C9F7B6
:10091000620F731F841F951FA01D08952F923F9291
:100920004F925F926F927F928F929F92AF92BF92FF
:10093000CF92DF92EF92FF920F931F93CF93DF93AB
:10094000CDB7DEB7CA1BDB0B0FB6F894DEBF0FBE08
:10095000CDBF09942A88398848885F846E847D8455
:100960008C849B84AA84B984C884DF80EE80FD8057
:100970000C811B81AA81B981CE0FD11D0FB6F894CD
:0E098000DEBF0FBECDBFED010895F894FFCF8E
:0C098E0001252B642E2530347520430019
:00000001FF
