:100000000C9434000C9451000C9451000C94510049
:100010000C9451000C9451000C9451000C9451001C
:100020000C9451000C9451000C9451000C9451000C
:100030000C9451000C9451000C9451000C945100FC
:100040000C9451000C9451000C9451000C945100EC
:100050000C9451000C9451000C9451000C945100DC
:100060000C9451000C94510011241FBECFEFD8E026
:10007000DEBFCDBF11E0A0E0B1E0E0E9F1E002C0F9
:1000800005900D92A031B107D9F721E0A0E1B1E0D0
:1000900001C01D92A239B207E1F70E94A8000C949A
:1000A000C6000C94000090911001E92FF0E0EE5E84
:1000B000FE4F80839F5F97FD03C0909310010895CA
:1000C0001092100108951F93CF93DF93EC0110E07D
:1000D000812F90E0FE0101900020E9F73197EC1BA1
:1000E000FD0B8E179F0748F08091C00085FD109290
:1000F000C600DF91CF911F9108958C0F9D1FFC01C9
:1001000080810E9453001F5FE3CF8F938FB78F933F
:10011000EF93FF93E091110180911001E81759F0DE
:10012000F0E0EE5EFE4F80818093C6008091110169
:100130008F5F809311018091110187FF03C08F5F52
:1001400080931101FF91EF918F918FBF8F9118953F
:100150001092C50085E08093C4008EE08093C100BA
:1001600086E08093C200789480E091E00E94630072
:1001700087E091E00E9463002FED83E994E0215035
:1001800080409040E1F700C00000FFCFF894FFCF1F
:10019000414242450A0D0036332E2E2E0A0D000034
:00000001FF
